:020000040800F2
:10000000706600207902000881020008830200085F
:10001000850200088702000889020008000000002D
:100020000000000000000000000000008B0200083B
:100030008D020008000000008F02000891020008F5
:10004000930200089302000893020008930200083C
:10005000930200089302000893020008930200082C
:10006000930200089302000893020008930200081C
:10007000930200089302000893020008930200080C
:1000800093020008930200089302000893020008FC
:1000900093020008930200089302000893020008EC
:1000A00093020008930200089302000893020008DC
:1000B00093020008930200089302000893020008CC
:1000C00093020008930200089302000893020008BC
:1000D00093020008930200089302000893020008AC
:1000E000930200089302000893020008930200089C
:1000F000930200089302000893020008930200088C
:10010000930200089302000893020008930200087B
:10011000930200089302000893020008930200086B
:10012000930200089302000893020008930200085B
:1001300000F002F800F090F80AA090E8000C824469
:100140008344AAF10107DA4501D100F085F8AFF246
:10015000090EBAE80F0013F0010F18BFFB1A43F0A5
:1001600001031847D8400000F8400000103A24BFAF
:1001700078C878C1FAD8520724BF30C830C144BF0C
:1001800004680C607047000000230024002500264E
:10019000103A28BF78C1FBD8520728BF30C148BFEA
:1001A0000B6070476E2900F0BF82702900F009844F
:1001B000662903F04587652903F04287672903F024
:1001C0003F876129AFF3008003681B0A28BF41F015
:1001D0008001692900F06C82642900F06982752928
:1001E00000F066826F2900F09683782900F0D583AD
:1001F000E92900F03183E42900F02E83F52900F08D
:100200002B83EF2900F09383F82900F0D48303684F
:10021000DB0928BF41F08001632900F0EE877329D4
:1002200000F0F387E32900F0FE87F32901F0038053
:10023000002070471FB501F0B5F804000020002130
:1002400003F0D2FE401C60600020002103F0E2FEBB
:10025000E0601FBD10B510BD01F07EF81146FFF73C
:10026000E9FF03F0B7FD01F05DF903B4FFF7F2FF1A
:1002700003BC01F061F900000948804709480047C4
:10028000FEE7FEE7FEE7FEE7FEE7FEE7FEE7FEE746
:10029000FEE7FEE704480549054A064B70470000A3
:1002A0008D370008310100087006002070660020BC
:1002B00070260020702600207CB51D4616460C00D6
:1002C000009001D02044401E074B7B442A466946DB
:1002D0000190304600F041FA05461CB10020694605
:1002E00000F04EFA28467CBDBD04000070B50646FD
:1002F00000F078F90468054630460A22002100F033
:100300002FFC2C6070BD0000014A00F061BC0000B1
:100310003800002040EA0103024630B59B0710D1A7
:100320004FF0013400E008C208C91D1B9D4315EAC7
:10033000C41FF8D013F0FF0102F8011B0DD01B0AF7
:10034000F8E711F8013B002B02F8013B05D011F84A
:10035000013B002B02F8013BF3D130BD10B5431C2B
:1003600002E010F8011B71B18107FAD14FF00132A0
:1003700002C88C1A8C4314EAC211F9D0C01A0A06BA
:1003800003D0C01E10BDC01A10BD0A0401D0801ECB
:1003900010BD0902FCD0401E10BD40EA010370B53B
:1003A0009B072ED14FF00136042A2AD308C810C962
:1003B0009D1B9D43121F15EAC61517D0D8B2E1B296
:1003C000401A50EA056110D198B2A1B2401A50EA21
:1003D00005410AD123F07F4024F07F41401A50EAC2
:1003E000052102D1180EA0EB146070BDA342DBD032
:1003F00018BA21BA884201D9012070BD4FF0FF30F0
:1004000070BD0AB9002070BD10F8013B11F8014B16
:1004100063B1A3420AD1521E08D010F8013B11F873
:10042000014B1BB1A34201D1521EEDD1181B70BD6F
:10043000032A40F2308010F0030C00F0158011F810
:10044000013BBCF1020F624498BF11F801CB00F8E8
:10045000013B38BF11F8013BA2F1040298BF00F83C
:1004600001CB38BF00F8013B11F0030300F0D28349
:10047000083AC0F0088051F8043B083A51F804CB20
:10048000A0E80810F5E7121D5CBF51F8043B40F8E6
:10049000043BAFF30080D20724BF11F8013B11F8F1
:1004A00001CB48BF11F8012B24BF00F8013B00F835
:1004B00001CB48BF00F8012B704702F0FF0343EA6D
:1004C000032242EA024200F002B84FF0000204297F
:1004D000C0F0128010F0030C00F01B80CCF1040C73
:1004E000BCF1020F18BF00F8012BA8BF20F8022BA7
:1004F000A1EB0C0100F00DB85FEAC17C24BF00F84D
:10050000012B00F8012B48BF00F8012B70474FF07A
:10051000000200B5134694469646203922BFA0E853
:100520000C50A0E80C50B1F12001BFF4F7AF09075F
:1005300028BFA0E80C5048BF0CC05DF804EB890050
:1005400028BF40F8042B08BF704748BF20F8022B93
:1005500011F0804F18BF00F8012B70474FF0013C9D
:1005600050F8042B51F8043B9A4221D1A2EB0C0322
:10057000934313EACC1317D150F8042B51F8043BE2
:100580009A4215D1A2EB0C03934313EACC130BD17F
:1005900050F8042B51F8043B9A4209D1A2EB0C030A
:1005A000934313EACC13DBD04FF00000704700BF39
:1005B000D01A01BAB1FA81F101F0180122FA01F062
:1005C000CB40C1F12001DBB2C0B2C01A2CFA01F35A
:1005D000D11A914311EAC311E6D1704770477047B1
:1005E00070470000004870471006002070B50446B0
:1005F00085690068C10601D5302600E02026C007C5
:1006000007D070BDD4E9012130469047206A401CD4
:1006100020626D1EF6D570BD70B504468569007800
:10062000C00707D170BDD4E9012120209047206A7E
:10063000401C20626D1EF6D570BD09684A0501D5C3
:1006400040B27047C905FCD500B2704709684A0539
:1006500001D5C0B27047C905FCD580B2704770B5EE
:100660000C460546012A05D02878800600D5EA699F
:10067000002302E0012305E05B1C934202D2E05C10
:100680000028F9D1A869E618C01AA861286A184498
:1006900028622846FFF7AAFF04E0D5E9012114F8F3
:1006A000010B9047B442F8D32846FFF7B5FF70BD61
:1006B0002DE9F0410646002410687529314616A53B
:1006C00010D0FFF7BAFF002802DA404213A507E076
:1006D00031688A0701D512A502E0490704D511A5A2
:1006E000012401E0FFF7B2FF00210A2206F12407EE
:1006F00009E0B0FBF2FCB0FBF2F302FB1C0030306F
:1007000078541846491C0028F3D123462A4630461F
:10071000BDE8F04100F001BB000000002D0000002A
:100720002B0000002000000011680268006A5305D9
:1007300001D508700AE0D30501D5088006E013064C
:1007400003D5C217C1E9000200E00860012070472C
:1007500001694A1C02610878704700B58FB0CDE985
:1007600001310021059105497944CDE90310114675
:10077000684600F031F90FB000BD0000E5FFFFFF53
:100780000A6802F8010B0A607047D1E900239A4217
:1007900002D2531C0B601070704700002DE9FF5F00
:1007A00015468A460446DFF8AC80F8440027D8E9AD
:1007B00000103E46CDE9001010E03AF816106A46E7
:1007C00002A800F08BFD411C07D02178890603D5D3
:1007D000E269391891420DD80744761C20788006CA
:1007E00002D5E069B84205DDAE42E6DB3AF8160014
:1007F0000028E2D1A069C01BA0612046FFF7F6FEE9
:10080000D8E90010CDE90010002017E03AF81810E0
:100810006A4602A800F062FDB0F1FF3F81460BD0AE
:1008200000250DF1080B05E0D4E901211BF80500B6
:1008300090476D1C4D45F7D308F10100B04280464A
:10084000E4DB206A384420622046FFF7E5FEBDE87D
:10085000FF9F0000B63900002DE9F0418046D21D0F
:1008600022F007020025D2E90002F52915A614D0CE
:10087000011E72F1000106DA0023D0EB030063EBE6
:10088000020211A608E0D8F800108B0701D50FA6C8
:1008900002E0490701D50EA601251146002408F102
:1008A000240704E000F0F4F930323A55641C50EAB1
:1008B0000102F7D12B46324621464046BDE8F041C1
:1008C00000F02BBA000000002D0000002B000000FB
:1008D0002000000030B4002100F1240408E002F000
:1008E0000705D208303542EA4372DB086554491CDB
:1008F00052EA0305F3D10468002310A2250707D5A7
:10090000A40600D421B1C46901230DA2641EC461F0
:1009100030BC00F002BA10B5044621461068FFF75B
:1009200095FE02462046BDE810400023D2E7D21DC6
:1009300022F00701D1E90023CCE70000000000000D
:1009400030000000F0B40D460188090502D5214CA5
:100950007C4402E01F4C7C440E34002100F124064C
:1009600008E002F00F071209E75D42EA03721B0973
:100970007754491C52EA0307F3D102780023120787
:1009800004D5702D06D009B1022311342246F0BCE3
:1009900000F0C3B901231034F8E770B504460D46E2
:1009A00021461068FFF752FE024629462046BDE860
:1009B00070400023C6E7D21D22F00703D3E90023CD
:1009C000C0E70368126843F0200303600823C36193
:1009D0000023B7E7183800002DE9F05F8946044688
:1009E0004FF0000ADFF874B1FB44C0F820A02046A5
:1009F000E1688847002874D0252806D0D4E9012171
:100A00009047206A401C2062F1E700265F4620469E
:100A1000E16888472028054607DB312D05D2781983
:100A200010F8200C08B10643F1E7B00701D526F015
:100A30000406C4F81CA00027C4F818A02A2D09D069
:100A4000284602F08DFF38B304EB8708303DC8F824
:100A5000185019E059F8041B204604EB87029161F5
:100A6000E1688847012F054618D1E069002820DA9F
:100A700026F020061DE0D8F8180000EB800005EBFA
:100A800040003038C8F818002046E168884705461D
:100A900002F066FF0028EED1012F0AD02E2D08D1DA
:100AA0002046E16888477F1C0546022F46F0200655
:100AB000C4DBA069002803DA404246F00106A061C9
:100AC000F00701D026F010066C2D0BD0682D09D050
:100AD0004C2D39D06A2D35D0742D35D07A2D33D0A8
:100AE00016E038E0E1682F4620468847B8420546C0
:100AF00009D16C2F26D04FF48060E1680643204670
:100B00008847054604E06C2F1AD04FF480700643E6
:100B10000DB3A5F14100192802D8203546F400662E
:100B20004A462946204626604E46FFF73BFB80B1E9
:100B300001280BD0F61D26F0070000F1080956E742
:100B40004020E4E78020D8E70020D6E706F104093A
:100B50004DE7284652E7206ABDE8F09FA83700001D
:100B60002DE9F04791460F4680460446002614F8CA
:100B7000015B2DB100F084F80068405DC007F6D13C
:100B80002B2D02D02D2D18D0641E4A463946204602
:100B900000F055FB27B13968A14201D1C7F80080A8
:100BA0004FF0020471050BD54042002803DDFFF72A
:100BB00019FD0460A007BDE8F08746F48066E4E70D
:100BC0000028F8DAFFF70EFD04606FF00040F2E74E
:100BD0002DE9F04115460E46040002D12C6804B9F7
:100BE0000BA4204600F0AAFB0444207870B12746ED
:100BF0003146384600F092FB0444207810B10020C2
:100C000004F8010B38462C60BDE8F0810027F9E7B5
:100C10000000000010B5203AC0F00B80B1E8185079
:100C2000203AA0E81850B1E81850A0E81850BFF4D6
:100C3000F5AF5FEA027C24BFB1E81850A0E8185075
:100C400044BF18C918C0BDE810405FEA827C24BFC9
:100C500051F8043B40F8043B08BF7047D20728BF57
:100C600031F8023B48BF11F8012B28BF20F8023BA6
:100C700048BF00F8012B704700487047100600205D
:100C800010B500F08FFB001D10BD00BF5D330000EC
:100C900030B5B0F10A024FEA900E71F100034EEA4E
:100CA000817EB0EB0E0061EB91014FEA101E4EEA1F
:100CB000017E10EB0E0041EB11114FEA102E4EEAAF
:100CC000016E10EB0E0041EB11214FEA104E4EEA7F
:100CD000014E10EB0E0041EB1141401841F10001B3
:100CE0004FEAD00040EA41704FEAD10110EB800595
:100CF0004FEA810444EA907444EB01046D1944EB1B
:100D00000404521BA3414FF0000348BF0A3200D530
:100D100030BD401C41F1000130BD2DE9F0470D46CA
:100D200099469246044600F124080168880604D5D5
:100D3000E06921F01001216000E00120A84201DDFE
:100D4000471B00E00027A1697A1902EB0900081A85
:100D5000A0612078C00602D42046FFF747FC002699
:100D600008E0D4E901211AF806009047206A401CE7
:100D7000761C20624E45F4DB2078C0060AD520465A
:100D8000FFF734FC06E0D4E9012130209047206AC7
:100D9000401C2062381EA7F10107F4DC07E0D4E90B
:100DA000012118F805009047206A401C2062281E87
:100DB000A5F10105F3DC2046FFF72EFC20780006A4
:100DC00002D50220BDE8F0870120FBE770472DE93E
:100DD000FF4F0C461E464FF0FF378BB0D2E90001A3
:100DE000DDF860800A908A46C1F30A5505B93D4690
:100DF000002108464FF00000BAF1000F00F4400057
:100E000005DA00EB80004FF4400101EA50004FEAA0
:100E10009059B9F1010F00DDB9460A9850EA4A002D
:100E20000ED044F61050A5F2FF3545432F14B8F10B
:100E3000000F1ED07542291E1EDDC9F100021CE004
:100E4000B8F1010F4FF0000001D0302103E0F24370
:100E500005E02154401CB042FBDB3046002200215B
:100E600021540B99C1F80880C1E900200FB0BDE8FA
:100E7000F08FBD1B6D1CDEE74A4600DA694206A80A
:100E800000F0E2FA06AB93E8070003AB83E8070043
:100E900050460A9900F057FB8DE80700A0F5005076
:100EA0001F3800900398002D09DD42F21F014A46C9
:100EB000084403A90390684600F0B6FD08E0A0F5D9
:100EC00000504A461F3803A90390684600F0C0FD51
:100ED0008DE807000004000C03D04FF0FF304108FC
:100EE00000E01046B8F1000F03D000220092154632
:100EF0001EE0751E05D4FFF7CBFE303262556D1E25
:100F0000F9D5B3460122084302D000227F1C04E039
:100F10002078302801D100227F1E002A099786D030
:100F20001DE0112D07DAFFF7B3FE303262556D1C5C
:100F300050EA0102F5D1084302D00098C8B10EE092
:100F40000021681E05E0235C625C63542254401E4D
:100F5000491C8142F7DBAB46A81B401E09900020CC
:100F600004F80B000B98099AC0F80880C0E9002B20
:100F70007CE711264FF0000859E72DE9F04F88462D
:100F80000446D21D22F0070191B0D1E90001CDE95C
:100F90000A0102F0D1FC02460B98C00F01D02D20AF
:100FA00007E02068810701D52B2002E0202101EA1B
:100FB000C000032A099001D0072A05DB03464146F9
:100FC000204600F0F3F90BE12078800601D5E069B6
:100FD00000E00620B8F1650F814606D0B8F1660F33
:100FE00018D0B8F1670F70D131E00020B9F1110FBE
:100FF000009001DB112301E009F101030AAA01A914
:101000000CA8FFF7E4FEDDE90C70002609F10105EC
:10101000834647E001204B4600904FF000470AAA64
:1010200001A90CA8FFF7D3FEDDE90DB00C995D46D0
:10103000002610B909F101000D18B9EB050003D421
:10104000C0F1FF3609F10105A5EB09002BE0B9F16C
:10105000010F01DA4FF001090020B9F1110F0090E2
:10106000484601DD112300E003460AAA01A90CA8A5
:10107000FFF7ADFEDDE90C704D4600268346207873
:1010800000070AD4AB4500DA5D4601A8012D04DD56
:10109000411911F8011C302907D04F4502DA17F128
:1010A000040F04DA012082460FE06D1EEEE7002FE8
:1010B00002DCED1B3E4403E0781CA84200DD7D1CF1
:1010C000B81B00F1010A4FF000472078000703D455
:1010D000AA4501DB4FF0FF3A0021B7F1004F0DF1B7
:1010E00043088DF8431024D002202B23002F01DA6F
:1010F0007F422D230A21021EA0F1010000DC5FB116
:1011000097FBF1FC97FBF1F201FB1C7C17460CF1FD
:10111000300C08F801CDEEE7A8F10100037021883A
:10112000090501D5452100E06521A0F1010800F87D
:10113000011C09980FA9A1EB0807FF1D00B10120B0
:10114000411901EBEA70A1693844081A401EA061F8
:101150002078C00602D42046FFF748FA099828B143
:10116000D4E901219047206A401C20622078C00603
:1011700022D52046FFF73AFA1EE0002E04DBB345E5
:1011800002DD01A8805D00E03020D4E90121904714
:10119000206A401C2062761CAAF101005FEA000A66
:1011A0000AD100F0FFF8C0680168405CD4E9012171
:1011B0009047206A401C2062281EA5F10105DCDC56
:1011C00007E0D4E9012118F8010B9047206A401C80
:1011D0002062381EA7F10107F3DC2046FFF71CFA56
:1011E000032011B043E610B5436913B1AFF300809B
:1011F00001E0FFF734FA012010BD127800F124015C
:101200000A7000224A700122EDE711684FF0FF32A8
:10121000E9E710B5436913B1AFF3008001E0FFF7D0
:10122000BDFA012010BD128800F124018284002241
:10123000C2840122EDE711684FF0FF32E9E72DE9A2
:10124000F05F824615468B4600270AF10104B94635
:101250000078302801D09DB113E014F8010B01276C
:10126000782803D0582801D045B10AE00DB1102DDF
:1012700007D1002714F8010B102502E0082500E033
:101280000A250026B0460EE005FB080005FB06F126
:1012900001271FFA80F801EB1046B6F5803F00D316
:1012A000B94614F8010B294600F0C0F80028EBDA23
:1012B000BBF1000F05D00FB1641E00E05446CBF81F
:1012C0000040B9F1000F06D0FFF78CF90221016050
:1012D000C81EBDE8F09F48EA0640FAE770B516461A
:1012E0000C460546FFF7CCFC036893F80101012882
:1012F00006D0FF2C0FD8185D68B101202C7070BD8E
:10130000D3F807013246214603F207130344284667
:10131000BDE8704018474FF0FF3070BD30B5034650
:101320001D781DB10A4603E0AC4201D1181A30BD48
:1013300012F8014B002CF7D15B1CF1E730B50346E6
:101340001D783DB10A4612F8014B1CB1AC42FAD1EE
:101350005B1CF5E7181A30BD7546FFF78DFCAE46ED
:1013600005006946534620F00700854618B020B5B1
:10137000FEF790FFBDE820404FF000064FF0000759
:101380004FF000084FF0000B21F00701AC46ACE82D
:10139000C009ACE8C009ACE8C009ACE8C0098D469A
:1013A0007047000000487047300600202DE9F041EA
:1013B0001F46044603260168072A01F4006004DB87
:1013C00008B116A505E016A503E008B115A500E0D3
:1013D00015A521F010002060A069C01EA0610FB10A
:1013E000401EA0612046FFF701F94FB1D4E9012169
:1013F00038469047206A401C2062C01C206206E0EC
:10140000206AFAE7D4E9012115F8010B9047761E0E
:10141000F8D22046FFF700F9BDE8F0814E414E00BA
:101420006E616E00494E4600696E66003A2800D231
:10143000303820F02002412A01D3A2F1370088423F
:1014400001D34FF0FF3070472DE9F0478146164633
:101450008AB0334878440DC88DE80D003048784490
:10146000801C03AC0DC884E80D0041F69B30084495
:10147000372190FBF1F290FBF1F5A5F1800501FB1E
:1014800012041B3C02D56442012000E00020DFF87A
:1014900090A080460027FA44AAF1BE0A0DE0E007BA
:1014A00009D03246684607EB47010AEB810100F09C
:1014B000CFFA8DE8070064107F1C002CEFD1184F85
:1014C0007F44AC3F18E0E80714D007EB04100DF19F
:1014D000180A90E80E008AE80E00C068F04201D1B8
:1014E00098190890324606A903A800F0B1FA03AB98
:1014F00083E807006D10641C002DE4D13246694674
:10150000B8F1000F03A802D000F08EFA01E000F05D
:101510009FFAC9E90001C9F808200AB0BDE8F087C0
:10152000CC2D000010B50446AFF300802046BDE886
:101530001040FEF79ABE000001491820ABBEFEE73E
:101540002600020070475FEA400C08BF91F0000FD0
:101550004FEA8C234FEAC12243EA51514FEA1C5013
:1015600018BF00F5F0404FEA300018BF41F00041CD
:101570005FEA6C5C00F02980BCF1FF3F08BF40F0DF
:1015800080407047130C06BF12044FF0100C4FF050
:10159000000C130E04BF12020CF1080C130F04BF51
:1015A00012010CF1040C930F04BF92000CF1020C19
:1015B000D30F04BF52000CF1010C11464FF0000292
:1015C000A0F11F00A0EB0C00704711F0004F08BF06
:1015D000704731F000413FF4D5AF0B0C06BF090452
:1015E0004FF0100C4FF0000C0B0E04BF09020CF171
:1015F000080C0B0F04BF09010CF1040C8B0F04BF86
:1016000089000CF1020CCB0F04BF49000CF1010C56
:10161000CCF12003A0EB0C0022FA03F302FA0CF247
:1016200041EA030100F10100704720F07F4C80EA9D
:10163000030023F07F47ACEB070303F57C5300F076
:10164000004003F1FF032DE980494FEA154B09B42F
:101650004FEA144325EA0B4E24EA03480FF204260E
:1016600006EB132749083E785FEA320203FB066760
:10167000C7F5000707FB06F64FEA54374FEAD64690
:1016800006F1020607FB066CCCF1005C4FEA1C4732
:101690002CEA074C07FB06F40CFB06F504EB154699
:1016A0004FEA961634BF00204FF000404FEAD13782
:1016B00006FB07FC4FEA1C4C0CFB0BF7D21B03FB91
:1016C0000CF761EB07010CFB0EF7B0EB074072EB78
:1016D00017420CFB08F734BFA2EB0742B2EB0742FC
:1016E00061EB17414FEA0C444FEA910706FB07FCF8
:1016F0004FEA1C4C0CFB0BF7B0EBC74072EB5732B8
:1017000003FB0CF734BFA2EBC742B2EBC74261EB5D
:1017100057310CFB0EF7B0EBC70072EB57720CFBA6
:1017200008F734BFA2EBC702B2EBC70261EB5771F7
:10173000039F4FEA816141EA921104EBCC044FEA26
:10174000D1374FEA826206FB07FC42EA90124FEA69
:1017500080604FEA1C4C0CFB0BF7D21B03FB0CF711
:1017600061EB07010CFB0EF7B0EB074072EB174281
:101770000CFB08F734BFA2EB0742B2EB074261EB68
:1017800017414FEA8C554FEA910704EB9C2406FB66
:1017900007FC4FEA1C4C0CFB0BF7B0EBC74072EB9D
:1017A000573203FB0CF734BFA2EBC742B2EBC74280
:1017B00061EB57310CFB0EF7B0EBC70072EB5772C1
:1017C0000CFB08F734BFA2EBC702B2EBC70261EB18
:1017D000577115EB4C254FEA816141EA92114FEAAE
:1017E00082624FEAD13742EA901206FB07FC44F1CD
:1017F00000044FEA80604FEA1C4C0CFB0BF7D21B35
:1018000003FB0CF761EB07010CFB0EF7B0EB074095
:1018100072EB17420CFB08F734BFA2EB0742B2EBA6
:10182000074261EB174115EB1C154FEA813141EA84
:1018300092414FEA823242EA90424FEA80304FEAC8
:101840000C7644F1000448EA03434EEA0B484FF09B
:10185000000EB2EB080C71EB030724BF6246394659
:101860004EEB0E0E4FF0000B0018524149414BEB6E
:101870000B0BB2EB080C71EB03077BF1000B24BFE1
:10188000624639464EEB0E0E4FF0000B00185241E7
:1018900049414BEB0B0BB2EB080C71EB03077BF1EF
:1018A000000B24BF624639464EEB0E0E51EA02078A
:1018B00018BF46F0010616EB0E7655F1000254F102
:1018C000000103D5BDE88901BDE80088BDE88901B4
:1018D000BDE80048B619524141EB0101A3F10103F3
:1018E000704780807F7E7D7C7B7A7978777676758D
:1018F0007473727171706F6E6E6D6C6C6B6A6A6905
:101900006868676666656464636362616160605F9E
:101910005F5E5E5D5D5C5C5B5B5A5A595958585717
:10192000575656555555545453535252525151507F
:1019300050504F4F4F4E4E4D4D4D4C4C4C4B4B4BD2
:101940004A4A4A4949494848484747474746464618
:101950004545454444444443434343424242424153
:101960004141002B26D4770021D01CB54FEA370720
:1019700003B44FF010004FF010014FF000000FBC07
:10198000BDE810400BF1010BBBF1010F08BF5FEA8E
:10199000170722BF12F1010211F101014FF00041BE
:1019A00043F1000300F0004043EA00007047F9D320
:1019B0005708DAE746EA064613F1400F4FEA1646A3
:1019C0001FDD13F1200FDFBF16430A46002120332D
:1019D0005B42C8D0C3F1200746EA064602FA07F781
:1019E0004FEA164646EA0706C3F1200722FA03F239
:1019F00001FA07F721FA03F14FF0000342EA070268
:101A0000B1E746EA020646EA06464FEA164646EAC5
:101A10000106BCBF46EA0646360C4FF000034FF005
:101A200000024FF000019EE72DE9C048934630B414
:101A300091E8380007C831EA400C48BF34EA430C4B
:101A400003D5FFF7F2FDFFF78CFFF0BCBDE800887F
:101A50002DE9C048934630B491E8380007C810F02B
:101A6000804F08BF13F0804F03D100F005F8FFF757
:101A700078FFF0BCBDE8008820F07F4780EA0300D3
:101A800023F07F4C07EB0C03A3F57C5300F00040E0
:101A9000A3F1FE0392F0000F00F0B38095F0000F69
:101AA00000F077802DE901494FEA11404FEA1446D2
:101AB00021EA004800FB06FC24EA064708FB06F67C
:101AC00007FB08F800FB07F718EB06484CEB164C31
:101AD0004FEA124B18EB07484FEA15464CEB1740FC
:101AE00022EA0B4E0BFB06FC25EA06470EFB06F628
:101AF00007FB0EFE0BFB07F71EEB064E4CEB164CDE
:101B00004FF000061EEB074E4CEB174B18EB0B0883
:101B100040F1000018EB0E0B58EB000840F10000FC
:101B20008F1A4FF000013CBFC943661B14BFB5EBD1
:101B3000040C00213CBFC943F61B4FEA17444EEA90
:101B40008E0E27EA04454FEA1C4704FB07622CEA85
:101B5000074C05FB07F70CFB05F604FB0CFC16EB2A
:101B6000074642EB174216EB0C4642EB1C421BEBBE
:101B7000060658EB0202414146EA9E0601D5BDE841
:101B80000189B619524141EB0101A3F10103BDE8FE
:101B900001894FEA14454FEA114724EA054621EA34
:101BA000074C05FB07F406FB07F70CFB06F105FBEA
:101BB0000CFC11EB074144EB17444FEA124711EBC1
:101BC0000C4144EB1C4422EA074C05FB07F206FBE0
:101BD00007F70CFB06F605FB0CFC16EB074642EB81
:101BE000174216EB0C4642EB1C456A1854F10001F3
:101BF00048BF7047B619524141EB0101A3F10103FF
:101C0000704795F0000F37D04FEA11424FEA144762
:101C100021EA024624EA074C02FB07F106FB07F71C
:101C20000CFB06F402FB0CFC14EB074441EB1741E0
:101C30004FEA154714EB0C4441EB1C4125EA074CD5
:101C400002FB07F506FB07F70CFB06F602FB0CFC94
:101C500016EB074645EB174516EB0C4645EB1C42C9
:101C6000121951F1000148BF7047B619524141EBBA
:101C70000101A3F1010370474FEA14454FEA1147F0
:101C800024EA054621EA074C05FB07F106FB07F7A6
:101C90000CFB06F24FF0000605FB0CFC12EB0742B2
:101CA00041EB174112EB0C4251EB1C4148BF70470E
:101CB000921841EB0101A3F10103704710B50E48E2
:101CC00001680EA002F018F90B480068104908409E
:101CD000B0F1005F0FD1084840680E49086008461F
:101CE00000680D4908600449086880F3088800BF4F
:101CF00009480068804710BD00500008426F6F74AB
:101D000041646472446174612025640D0A0000001E
:101D10000000FE2F340000203000002010B52021EC
:101D20000148FEF7F4FB10BDF003002070B52A2532
:101D30004FF4803400E0641E24B1802000F0BAFF2C
:101D40000028F8D014B90325284670BD40F2FF5092
:101D500000F06EFF2846F8E72DE9F04106462A27F5
:101D60004848456B01E04748456B05F045000028B1
:101D7000F9D005F0040030B10327042000F058FF2B
:101D80003846BDE8F08105F0010028B101270120A7
:101D900000F04EFF3846F4E700F086FFB04202D074
:101DA00010273846EDE740F2FF5000F041FF0020D9
:101DB00000F094FF04463448204008B93846E0E774
:101DC00004F0004008B11C20DBE704F0804008B1BB
:101DD0000920D6E704F0005008B10A20D1E704F04A
:101DE000805008B10B20CCE704F0006008B10C2053
:101DF000C7E704F0806008B10D20C2E704F08070EE
:101E000008B10E20BDE704F4000008B10F20B8E7C8
:101E100004F4800008B11020B3E704F4001008B106
:101E20001120AEE704F4801008B11220A9E704F4F1
:101E3000002008B11320A4E704F4802008B1142086
:101E40009FE704F4003008B115209AE704F48030CD
:101E500008B1162095E704F4004008B1172090E778
:101E600004F4804008B118208BE704F4005008B156
:101E7000192086E704F0080008B11A2081E73846E7
:101E80007FE700000080014008E0FFFD70B52A25D3
:101E90001048446B01E00F48446B04F045000028F3
:101EA000F9D004F0040028B10325042000F0C0FE9E
:101EB000284670BD04F0010028B10125012000F082
:101EC000B7FE2846F5E740F2FF5000F0B1FE284685
:101ED000EFE700000080014070B52A250B48446BF5
:101EE00001E00A48446B04F045000028F9D004F0F2
:101EF000040028B10325042000F09AFE284670BD96
:101F000040F2FF5000F094FE2846F8E700800140C0
:101F10002DE9F04106460F464FF02A082248456B4E
:101F200001E02148456B05F045000028F9D005F097
:101F3000040038B14FF00308042000F079FE404659
:101F4000BDE8F08105F0010030B14FF0010801203B
:101F500000F06EFE4046F3E700F0A6FEB04203D06C
:101F60004FF010084046EBE740F2FF5000F060FEF3
:101F7000002000F0B3FE044604F4604018B9200CC1
:101F800038804046DCE704F4005008B11320D7E75E
:101F900004F4804008B11020D2E704F4004008B1F6
:101FA0000F20CDE74046CBE70080014070B52A26E0
:101FB0004FF480350F48446B02E06D1E0D48446BB2
:101FC00004F0450008B9002DF7D115B104F0040064
:101FD00028B10326042000F02BFE304670BD04F02B
:101FE000400028B12A26402000F022FE3046F5E7C6
:101FF0003046F3E70080014010B500240BE001F00B
:10200000EDFA4BF64171884203D106A001F074FF4E
:1020100010BD601CC4B2052CF1DB0AA001F06CFFFE
:1020200000BFF5E70D0A0D0A454550524F4D206996
:102030006E697461696F6E20737563636573730D88
:102040000A0000000D0A0D0A454550524F4D206907
:102050006E697461696F6E206661696C65640D0AF2
:10206000000000002DE9F04104460E461746002509
:102070001448006820F01000124908600B2000F09E
:1020800085F8C4F3074000F081F8C4F3072000F09E
:102090007DF8E0B200F07AF8002000F077F806E072
:1020A00071197019012201F033FB681C85B2BD4221
:1020B000F6DB0448006840F0100002490860BDE803
:1020C000F08100000C0801402DE9F04106460C4665
:1020D0009046002501F062FF01F040FF2A480068A9
:1020E00020F0100028490860AD2000F04FF8C6F33A
:1020F000074000F04BF8C6F3072000F047F8F0B2B5
:1021000000F044F8207800F041F8607800F03EF8E4
:102110001D48006840F010001B49086002251EE0C1
:10212000782701E0781E87B2002FFBDC1648006894
:1021300020F0100014490860AD2000F027F8605D21
:1021400000F024F8681C85B2605D00F01FF8681C80
:1021500085B20D48006840F010000B490860454505
:10216000DEDB642701E0781E87B2002FFBDC01F084
:10217000DFFE0548006820F010000349086001F008
:1021800001FFBDE8F08100000C08014038B50446AD
:1021900000940121684601F089FA38BD10B5044663
:1021A00001F0FCFE01F0DAFE0E48006820F010009D
:1021B0000C4908602020FFF7E9FFC4F30740FFF750
:1021C000E5FFC4F30720FFF7E1FFE0B2FFF7DEFF12
:1021D0000448006840F010000249086001F0D2FE97
:1021E00010BD00000C0801407047000000B5024619
:1021F00000F07EF800B900BD0F48006940F0020011
:102200000D49086108464261006940F040000861DC
:1022100000BF0948C06800F001000028F9D100F0B3
:1022200067F800B9E7E70448006920F002000249B6
:10223000086100BFDFE7000000200240034800699A
:1022400040F0800001490861704700000020024012
:102250002DE9F04706460F469046002500BF2EE0C8
:1022600006EB050957F805A000F042F810B9002068
:10227000BDE8F08700240CE01348006940F001003D
:102280001149086120012AFA00F029F81400601CA5
:10229000C4B2022CF0DB00F02BF808B90020E7E70D
:1022A0000948006920F00100074908613868316871
:1022B000884203D0FFF798FF0020D9E72D1D454540
:1022C000CED30120D4E70000002002400548006979
:1022D00000F0800020B1044802494860034848608B
:1022E000704700000020024023016745AB89EFCD15
:1022F00000BF1048C06800F001000028F9D10D4867
:10230000C06800F0200010B120200A49C8600948C8
:10231000C06800F0100048B90648C06800F004002A
:1023200020B90448C06900F0010008B100207047DE
:102330000120FCE7002002402DE9FC4107460D4644
:1023400000262A2400200090019008205C490860A3
:1023500010204860402088600020C8604FF48060F2
:102360000861084600F0E4FC1020FFF7F5FC044685
:102370002A2C02D02046BDE8FC8152480088000487
:102380004F49086037204860402088600020C860BE
:102390004FF480600861084600F0CAFC3720FFF760
:1023A000DBFC04462A2C01D02046E4E74648474996
:1023B000086008204860302088600220C860002043
:1023C000086101204861084600F044FC00203C49B7
:1023D000086033204860402088600020C8604FF4C7
:1023E00080600861084600F0A3FC3320FFF7B4FCCE
:1023F00004462A2C01D02046BDE709E04FF4001026
:1024000000F058FC20B100F08DFC4DF82600761C41
:102410002F48406B40F22A6108400028EED0082087
:1024200000F048FC28B1082000F002FC04242046FB
:10243000A1E7022000F03EFC28B1022000F0F8FBEA
:102440000224204697E7202000F034FC28B1202009
:1024500000F0EEFB062420468DE74FF4007000F0FC
:1024600029FC30B14FF4007000F0E2FB0724204655
:1024700081E740F2FF5000F0DBFB00980006009976
:1024800001F47F4140EA0120009901F47F0140EA14
:102490001120009940EA11606860019800060199D6
:1024A00001F47F4140EA0120019901F47F0140EAF3
:1024B0001120019940EA1160286020465BE7000086
:1024C000C40300200C000020FFFF0F00D8030020F1
:1024D0000080014070B5002413E0174D05EB041592
:1024E000EB68154D05EB0415AA68134D05EB0415B3
:1024F0006968114D05EB0415286800F02BF8601C85
:10250000C4B2062CE9D3002413E00C4D05EB0415EE
:10251000EB680A4D05EB0415AA68084D05EB041598
:102520006968064D05EB0415286800F009F8601C81
:10253000C4B2072CE9D370BD44400008A440000891
:1025400010B54161446894431C434460C4688C43A3
:10255000C46010BD10B54161046894431C4304601D
:10256000C4688C43C46010BD10B544F2554009499D
:10257000088045F2665088830020886106A10548DE
:10258000801CFDF7C7FE04A102480C30FDF7C2FE17
:1025900010BD0000F00300204E554C4C0000000020
:1025A00010B520220A490020FFF75CFD084800888A
:1025B00044F25541884207D10548808B45F2665167
:1025C000884201D1012010BDFFF7A8FB0020FAE7E7
:1025D000F003002070B504460D460CB9002070BD14
:1025E000002020606060A0601EA12846FDF7B6FFB5
:1025F00098B90C2221464FF48050FFF733FD208814
:1026000042F23321884206D1208948F69901884256
:1026100001D10120E3E70020E1E74FF40071134806
:10262000FDF775FF4FF400720021104800F0BEFE68
:102630002A2811D10D4A07CA84E80700208842F2EF
:102640003321884206D1208948F69901884201D178
:102650000120C4E70020C2E705A001F04DFC0020E6
:10266000BDE70000454550524F4D000010040020CA
:102670005265616420534420426C6F636B20666135
:10268000696C0D0A00000000FEB54FF400561B4DAA
:102690001BA001F031FC25A16846FFF79BFF012834
:1026A00027D1019C22E0C5F30A0010B92846FFF7A4
:1026B0009DFDFF224FF400711E48FDF7FEFE4FF412
:1026C00000721C493046FFF7CDFC4FF400721949E7
:1026D0002846FFF7BDFD06F5007605F50075B4F553
:1026E000007F01D2002401E0A4F50074002CDAD1AF
:1026F00002E011A001F000FCFEBD00000050000847
:102700000D0A436F7079696E6720496D61676520B6
:1027100066726F6D20454550524F4D20746F2046B4
:102720006C617368202E2E2E0D0A00004545505214
:102730004F4D000010040020436F756C64206E6FD5
:10274000742066696E642076616C696420696D61CD
:10275000676520617420454550524F4D0D0A0000B9
:10276000FEB54FF4007635011EA001F0C5FB27A190
:102770006846FFF72FFF01282FD10003FFF70EFD5A
:102780000C2269466810FFF79FFC019C22E0C5F30C
:102790000B0010B92846FFF701FDFF224FF400712E
:1027A0001B48FDF78AFE4FF400723146184800F0CE
:1027B000FDFD4FF4007216492846FFF785FC06F52B
:1027C000007605F50075B4F5007F01D2002401E024
:1027D000A4F50074002CDAD102E00EA001F08CFB0D
:1027E000FEBD00000D0A436F7079696E6720496D68
:1027F0006167652066726F6D20534420746F2045B9
:102800004550524F4D202E2E2E0D0A0053440000ED
:1028100010040020436F756C64206E6F742066692D
:102820006E642076616C696420696D616765206102
:10283000742053440D0A0000FEB54FF400761D4D80
:102840001DA001F059FBFFF741FD25A16846FFF7E8
:10285000C1FE012827D1019C22E0C5F30A0010B96E
:102860002846FFF7C3FCFF224FF400711D48FDF717
:1028700024FE4FF4007231461A4800F097FD4FF4E1
:10288000007218492846FFF7E3FC06F5007605F5C7
:102890000075B4F5007F01D2002401E0A4F50074B6
:1028A000002CDAD102E010A001F026FBFFF7C6FCF5
:1028B000FEBD0000005000080D0A436F7079696E7C
:1028C0006720496D6167652066726F6D20534420F3
:1028D000746F20466C617368202E2E2E0D0A000046
:1028E0005344000010040020436F756C64206E6F29
:1028F000742066696E642076616C696420696D611C
:1029000067652061742053440D0A000008B55B48D8
:10291000806940F00100594988610846806900F0EB
:102920000100009000BF0846C06940F08050C861B7
:102930000846C06900F08050009000BF03200246A6
:102940004F4B19684FF6FF0319404E4B0B4343EAB8
:1029500002214B4B196000BF4B48406820F0E060FB
:10296000494948600846406840F0806048604748F0
:10297000006820F00700801C444908600846006891
:1029800000F00700022801D0FFF72EFC3B4800684A
:1029900040F480303949086000BF3848006800F4CE
:1029A0000030B0F5003FF8D13448406820F47C1086
:1029B00040F4E810314948600846006840F08070F3
:1029C000086000BF2D48006800F00070B0F1007F83
:1029D000F8D12A48406820F0F000284948600846AD
:1029E000406820F4E06040F4806048600846406839
:1029F00020F4605048600846406820F00300801CC6
:102A0000486000BF1D48406800F00C000828F9D15C
:102A10001F484FF0E02148610020886105200861CF
:102A20000846006940F0040008611A481A49086025
:102A30001248806940F004001049886108468069A6
:102A400040F0080088610846806940F01000886105
:102A50000846806940F0200088610846806940F49B
:102A6000804088610846806940F48050886108464B
:102A7000406940F48060486108BD000000100240D9
:102A80000CED00E00000FA050000014000200240CB
:102A90003F19010000A24A04000000207CB5054651
:102AA0002A2400200090019000F018F900F0007036
:102AB00010B10E2420467CBD3F49098888B2694682
:102AC000FFF73AFC04462A2C01D02046F3E7012DFB
:102AD00038D1019800F48020002830D03648008892
:102AE0000004364908603720486040208860002094
:102AF000C860A8020861084600F01AF93720FFF7FD
:102B00002BF904462A2C01D02046D4E702202B4979
:102B1000086006204860402088600020C8604FF4AC
:102B200080600861084600F003F90620FFF714F9F9
:102B300004462A2C01D02046BDE72046BBE72524C9
:102B40002046B8E7019800F4803078B31A4800882E
:102B500000041A490860372048604020886000203F
:102B6000C8604FF480600861084600F0E1F8372043
:102B7000FFF7F2F804462A2C01D020469BE70020FC
:102B80000E49086006204860402088600020C86028
:102B90004FF480600861084600F0CAF80620FFF78D
:102BA000DBF804462A2C02D0204684E701E02046C8
:102BB00081E7252420467EE70C000020C403002086
:102BC00010B52A2400F05EF800F028FB04462A2CF9
:102BD00000D010BD00F082FA04462A2C00D0F8E79D
:102BE0000120114908750020086048608860C860AD
:102BF0000861084600F07EF82A2C03D10B4800F04B
:102C000007F904462A2C06D10849B1F84C100804EB
:102C100000F0CAFC04462A2C03D1002000F0ACF8D6
:102C2000044600BFD5E70000AC0300205C03002091
:102C30000149886370470000008001400149086035
:102C400070470000A0003042014908607047000052
:102C50008C05304200210A4B02685A6242689A622F
:102C60001A46D16A21F0F701D0E902231A43036919
:102C70001A4343691A431143014AD1627047000065
:102C80000080014000200649086048608860C860F4
:102C900048628862C862034888630020C86370473E
:102CA00000800140FF07C00001480069C0B27047C2
:102CB0000080014001460020034A526B0A400AB1DD
:102CC000012000E0002070470080014002480068B9
:102CD00000F00300704700000080014008B5014685
:102CE000002000900248084400900098006808BD49
:102CF0001480014000210A4A516847F6FF6291435F
:102D0000027D83681A4343681A43C3681A43036801
:102D10001A4303691A431143014A51607047000086
:102D20000080014001480068704700008080014039
:102D30000021094B02689A601A46D1686FF30A01B4
:102D4000D0E901231A43C3681A4303691A431143A4
:102D5000014AD160704700000080014005490968C0
:102D600021F00301034A1160114609680143116013
:102D7000704700000080014070B504462A252248B3
:102D80000068032802D12725284670BD1E48006828
:102D900038B11D480068012803D01B48006802288C
:102DA00030D1B4F5805F02D127252846EDE7B4F590
:102DB000006F15D10120FFF771FE05462A2D21D1A4
:102DC00001201249087500200860486088604FF4AF
:102DD0000060C860002008610846FFF78BFF11E023
:102DE0000020FFF75BFE05462A2D0BD10120074985
:102DF00008750020086048608860C860086108465F
:102E0000FFF778FF2846C0E708000020AC03002049
:102E100030B501462A200022AC4B1B7881F84E3099
:102E2000AB4B1B88A1F84C30AA4B1B681A0E9309B8
:102E30000B70C2F383034B7002F003038B70A54B3E
:102E40001B68C3F30742CA70A24B1B88C3F3072257
:102E50000A71A04B1A784A715B681A0E1301CB8075
:102E60009C4B5B68C3F30742CB8843EA1213CB80C9
:102E700002F00F030B72974B9B88C3F30722D30911
:102E80004B72C2F380138B72C2F34013CB72C2F346
:102E900000130B7300234B738C4B1B681BB18B4BC4
:102EA0001B68012B3CD193071B0D0B61894B1A79D1
:102EB0000B6943EA82030B61864B9B681A0E0B6910
:102EC00043EA92130B61C2F3C2030B7502F00703CE
:102ED0004B75804B9B68C3F3074253098B75C2F354
:102EE0008203CB7593075B0F0B767A4B1B89C3F379
:102EF00007220B7E43EAD2130B760B695B1C4B64F3
:102F00000C7E4B6CA41C0125A5406B434B640C7AD2
:102F10000123A3408B64D1E9113463434B6421E066
:102F20006A4B1B68022B1DD16A4B1A7993069B0AC8
:102F30000B61684B9B681A0E0B6943EA02230B6115
:102F4000644B9B68C3F307420B6913430B61614BEE
:102F50001B89C3F307220B695B1CDB044B644FF432
:102F600000738B64C2F3801301F8193F93065B0E64
:102F70004B70584B1A7A4B7843EAD2134B7002F0DD
:102F80007F038B70534BDB681A0ED309CB70C2F3EF
:102F900041130B71C2F382034B7193071B0F8B71AB
:102FA0004C4BDB68C3F307428B7943EA92138B7176
:102FB000C2F34013CB7100230B7202F001034B727A
:102FC000444B9B89C3F30722D3098B72C2F380134E
:102FD000CB72C2F340130B73C2F300134B73C2F3F3
:102FE00081038B7302F00303CB733A4B1A7B5308B4
:102FF0000B7401234B74384B1B681A0ECA741939B1
:10300000354B1B68C3F307421402CC85324B1B8837
:10301000C3F30722CB8D1343CB852F4B1A781406AD
:103020000C635B681A0E0B6B43EA02440C632A4B79
:103030005B68C3F307420B6B43EA02240C63264B25
:103040009B88C3F307220B6B13430B63224B1A7944
:1030500034235A54204B9B681A0E35235A541E4B66
:103060009B68C3F3074214068C631B4B1B89C3F395
:1030700007228B6B43EA02448C63174B1A7A8B6BE3
:1030800043EA02248C63144BDB681A0E8B6B1343E8
:103090008B63114BDB68C3F307423C235B5C43EA61
:1030A00012143C235C5413071C0DCC870A4B9B89DC
:1030B000C3F30722CB8F1343CB87074B1A7B5408EC
:1030C00040235C54012441235C5430BD080000209F
:1030D0000C0000203C0300204C03002038B52A24BB
:1030E00001200090FFF7F2FD10B92524204638BDDD
:1030F00045480068042829D000204449086002207F
:103100004860C02088600020C8604FF4806008617B
:103110000846FFF70DFEFEF7B9FE04462A2C01D043
:103120002046E4E70020FFF7D9FD39490860042074
:10313000FFF7D4FD364948600820FFF7CFFD34493A
:1031400088600C20FFF7CAFD3149C8602E4800682E
:1031500058B12D480068012807D02B480068062880
:1031600003D029480068022817D1002027490860A9
:1031700003204860402088600020C8604FF48060D1
:1031800008610846FFF7D4FD69460320FEF7C0FE3C
:1031900004462A2C01D02046A9E71B4800680428D1
:1031A0002FD0BDF800001B490860BDF800000004E6
:1031B0001649086009204860C02088600020C86067
:1031C0004FF4806008610846FFF7B2FDFEF75EFE2F
:1031D00004462A2C01D0204689E70020FFF77EFD17
:1031E0000D4908600420FFF779FD0B49486008206D
:1031F000FFF774FD084988600C20FFF76FFD064952
:10320000C8602A24204672E708000020C40300207A
:103210004C0300200C0000203C0300202DE9F0416D
:103220002A240026002500274FF00008B2205B4921
:1032300008750020086048608860C860086108461A
:10324000FFF758FD0320FFF789FD0120FFF7F6FC8B
:1032500000205349086048608860C8604FF480606F
:1032600008610846FFF764FDFEF760FD04462A2C5E
:1032700002D02046BDE8F0814FF4D570484908607F
:1032800008204860402088600020C8604FF48060BB
:1032900008610846FFF74CFDFEF788FE04462A2C1D
:1032A00005D101203F4908604FF0804812E000201E
:1032B0003B49086037204860402088600020C86093
:1032C0004FF4806008610846FFF732FD3720FEF7B3
:1032D00043FD044600203249086037204860402002
:1032E00088600020C8604FF4806008610846FFF7DE
:1032F0001FFD3720FEF730FD04462A2C4CD138E064
:10330000002027490860372048604020886000205E
:10331000C8604FF4806008610846FFF709FD372058
:10332000FEF71AFD04462A2C01D02046A2E71E48CB
:1033300048EA00001A490860292048604020886057
:103340000020C8604FF4806008610846FFF7F0FC79
:10335000FEF7C2FD04462A2C01D020468AE7002051
:10336000FFF7BCFC0646012080EAD67080F001071A
:103370006D1C1FB94FF6FF708542C1D34FF6FF7029
:10338000854202D31B24204674E706F08040061EC7
:1033900002D002200349086020466BE7AC030020FE
:1033A000C403002008000020000010802DE9F04731
:1033B00006460F4614464FF02A084FF000093546DE
:1033C0004FF0000A26B94FF026084046BDE8F087C6
:1033D0002A206B49087000206A4908606A49086021
:1033E0006A486B490860002048608860C8600861CE
:1033F00048610846FFF72EFC0020FFF725FC00205F
:10340000FFF76CFC00F0007018B14FF00E0840465A
:10341000DCE760480068022801D104027F0A002C22
:1034200021DDB4F5006F1EDC601E2040D8B92046B7
:1034300000F0A4FC824658480460102056494860B9
:10344000402088600020C8604FF480600861084612
:10345000FFF76EFC1020FEF77FFC8046B8F12A0FC4
:1034600005D04046B2E74FF026084046AEE7474851
:1034700047490860084644604FEA0A108860022005
:10348000C86000200861012048610846FFF7E2FBA0
:103490003D480460002041490860414806603E48BC
:1034A000076011203C494860402088600020C860C7
:1034B0004FF4806008610846FFF73AFC1120FEF7E0
:1034C0004BFC8046B8F12A0F01D040467EE711E060
:1034D0004FF40040FFF7EEFB60B14FF0000905E04C
:1034E000FFF720FC45F8290009F10109B9F1080F9F
:1034F000F6D320352B48406B40F22A610840002863
:10350000E6D00820FFF7D6FB30B10820FFF790FB8C
:103510004FF00408404659E70220FFF7CBFB30B1DB
:103520000220FFF785FB4FF0020840464EE72020BF
:10353000FFF7C0FB30B12020FFF77AFB4FF0060801
:10354000404643E74FF40070FFF7B4FB38B14FF447
:103550000070FFF76DFB4FF00708404636E703E0C9
:10356000FFF7E0FB28602D1D4FF40010FFF7A2FBD2
:103570000028F5D140F2FF50FFF75AFB404625E7FF
:10358000240000202800002014000020FFFF0F006E
:10359000D803002008000020C403002018000020E9
:1035A000200000200080014070B504462A250A480A
:1035B0000460072008494860402088600020C860F7
:1035C0004FF4806008610846FFF7B2FB0720FEF762
:1035D000C3FB0546284670BDC40300201CB500206F
:1035E0000190009000241F48006820F010001D4941
:1035F0000860AB2001900122694601A800F088F81C
:10360000002001900122694601A800F081F8002005
:1036100001900122694601A800F07AF8002001908B
:103620000122694601A800F073F8FF2001900122F1
:10363000694601A800F06CF89DF800000402FF2024
:1036400001900122694601A800F062F89DF800008F
:10365000204484B20348006840F01000014908602B
:1036600020461CBD0C0801400F48006820F04000B7
:103670000D490860084600684FF6BF71884300F2A4
:103680001F30094908600846406820F0040048607F
:103690000846C06920F40060C8610846006840F030
:1036A00040000860704700000030014018B5024635
:1036B0000B460020009002B10BB9002018BD00217C
:1036C0000BE000BF1148806800F002000028F9D02C
:1036D000505C0E4C2073481C81B29942F1DB00BF54
:1036E0000A48806800F002000028F9D000BF0748AF
:1036F000806800F080000028F9D10448C06800907C
:1037000002488068009000BF0120D7E700300140E8
:1037100038B503460C46002000900BB104B10AB93D
:10372000002038BD002115E000BF1748806800F078
:1037300002000028F9D0585C134D287300BF1248CE
:10374000806800F001000028F9D00F48C06860547C
:10375000481C81B29142E7DB00BF0B48806800F053
:1037600002000028F9D000BF0748806800F0800000
:103770000028F9D10448C068009003488068009090
:1037800000BF0120CDE70000003001401148006873
:1037900040F001000F490860084640680E490840A3
:1037A0000C494860084600680C490840094908600F
:1037B0000846006820F4802008600846406820F42D
:1037C000FE0048604FF41F008860C8030449086089
:1037D00070470000001002400000FFF8FFFFF6FEF7
:1037E00008ED00E01A48006800F40050B0F5005FF2
:1037F00019D01748006841F20C61884340F00C0072
:1038000013490860081D006820F44050091D086035
:10381000081D006820F44070091D086040F2712006
:103820000B49091F08600A48001D006820F49040F9
:103830000749091D0860081D006820F02A00091DBD
:1038400008600348006840F4005001490860704770
:103850000C38014001B526480078FF2806DBFF211F
:103860002448FCF732FE0020214908709DF8000032
:103870007F2803D09DF80000082812D11C4800784A
:1038800000B908BD00211A480078401E194A115499
:1038900017480078401E1649087017A000F02CFB4E
:1038A00023E09DF800000D2810D114A000F024FBA7
:1038B000104800F06DFAFF210E48FCF706FE0020CC
:1038C0000B4908700EA000F017FB0EE09DF80000F9
:1038D0000849074A1278885405480078401C044972
:1038E00008700121684600F011F800BFC9E7000028
:1038F000040000203A020020082008000D0A000001
:103900000D0A73746D3332203E20000010B502465C
:1039100000200CE000BF074B1B6803F08003002B66
:10392000F9D0135C034C241D2360431C98B28842D9
:10393000F0DB10BD00380140490050EAC12018BF3B
:1039400004204A0D18BF40F0010040F2FF72B2EBB4
:10395000515F08BF40F00200012808BF05207047F2
:1039600030380A2801D2012070470020704700003B
:10397000F8B500200090062404F1300000900121E9
:103980006846FFF7C3FF22E0002518E013480068EF
:1039900000F0200048B11148001D0068C0B200903E
:1039A0000FA000F0A9FA0020F8BD00BF002600E03B
:1039B000761C0C488642FBD300BF681CC5B2642D40
:1039C000E4DB601EC4B2214607A000F095FA002C8B
:1039D000DADC03A000F090FA0120E5E700380140AE
:1039E0000D0A000040190100082564003EB5044698
:1039F00006A16846FEF7EEFD012802D1FEF7B0FEF3
:103A000002E003A000F078FA3EBD0000534400003D
:103A1000436F756C64206E6F742066696E642076E7
:103A2000616C696420696D6167652061742053442D
:103A30000D0A000010B50446074908A000F05CFA22
:103A400005490A310AA000F057FA0348801E81692F
:103A50000CA000F051FA10BDF2030020496D61671F
:103A600065537263436F6E6669673D25730D0A0087
:103A7000496D61676553726353746174653D257365
:103A80000D0A0000496D61676556657273696F6E56
:103A90003D25640D0A00000010B504460020FEF725
:103AA0007DFB202202490020FEF70EFB10BD000026
:103AB000F003002070B50646002400251EB924A09E
:103AC00000F01AFA70BD28A13046FCF71DFC044630
:103AD0001CB926A000F010FAF4E723A10020FCF79F
:103AE00013FC04461CB928A000F006FAEAE71EA160
:103AF0000020FCF709FC05461DB92CA000F0FCF9DC
:103B0000E0E731A12046FCF729FD20B929463248DB
:103B1000FCF700FC1AE031A12046FCF71FFD28B994
:103B200029462D480A30FCF7F5FB0FE02FA120466F
:103B3000FCF714FD30B92846FCF7D8FB2649891E4E
:103B4000886103E02DA000F0D7F9BBE700BFB9E71B
:103B50004E6F7420612076616C696420636F6D6DB7
:103B6000616E640D0A00000020000000506C656169
:103B700073652070726F76696465206120636F6D74
:103B80006D616E640D0A0000506C65617365207094
:103B9000726F76696465206120706172616D657411
:103BA0006572206E616D650D0A000000506C6561E4
:103BB00073652070726F7669646520612076616C30
:103BC00075650D0A00000000496D616765537263F9
:103BD000436F6E6669670000F2030020496D6167FC
:103BE000655372635374617465000000496D6167C9
:103BF0006556657273696F6E000000004E6F742029
:103C0000612076616C696420706172616D657465B4
:103C1000720D0A003EB505463B493CA000F06CF928
:103C2000002000900190029037490A313648FCF795
:103C300095FC002839D13DA13348FCF78FFC28B111
:103C40003CA13148FCF78AFC002829D12E4968465E
:103C5000FEF7C0FC01281ED12B48801E8069BDF8EC
:103C60000210884202D1FEF729F84CE02FA1264825
:103C7000FCF774FC10B9FEF707FD01E0FEF7DCFD70
:103C8000BDF802002049891E88610020FFF704FF6B
:103C9000FEF714F837E01C4927A000F02DF932E0B8
:103CA00019492FA000F028F92DE017496846FEF7C2
:103CB00091FC012823D10A2113480A30FCF727FC84
:103CC0001148FCF74BFB441C22460F4901F10A0046
:103CD000FCF7AEFBBDF802000B49891E886113A1F9
:103CE0000948FCF73BFC10B9FEF7CEFC01E0FEF7FB
:103CF000A3FD0020FFF7D0FEFDF7E0FF03E002493F
:103D00000DA000F0F9F83EBDF20300200D0A426F4D
:103D10006F74696E6720496D6167652066726F6DAB
:103D20002028257329202E2E2E0D0A00454550529D
:103D30004F4D000053440000436F756C64206E6F5C
:103D4000742066696E642076616C696420696D61B7
:103D5000676520617420282573290D0A0000000082
:103D60004465766963652028257329206973206E70
:103D70006F742076616C69640D0A000001460020B2
:103D800002E04910421CD0B20129FAD1704700006C
:103D90002DE9F0410646002412E00D4800EB041521
:103DA0002846FCF7DBFA07463A4631462846FCF738
:103DB000F4FA20B93046E9688847BDE8F081641C10
:103DC000052CEAD33046FFF735FE00BFF5E70000CB
:103DD0001441000808B500200090FEF797FDFEF79B
:103DE00079FBFFF7FFFCFFF73FFCFEF7E9FEFEF76C
:103DF00003F915A000F080F8FDF790FFFEF7D0FB67
:103E000028B917A000F078F8FEF7AEFB09E01FA074
:103E100000F072F8FFF7ACFD012802D16846FFF709
:103E2000F9FE24A000F068F80DE02548006800F0D5
:103E3000200040B12248001D0068C0B200909DF8EB
:103E40000000FFF707FDF0E753544D333220626F57
:103E50006F746C6F616465722056312E300D0A00EC
:103E6000436F756C64206E6F742066696E642062A7
:103E70006F6F74617267732C207573696E6720644D
:103E8000656661756C740D0A000000005072657300
:103E90007320616E79206B657920746F2073746F65
:103EA00070206175746F20737461727420696E2064
:103EB0003A20000073746D3332203E200000000071
:103EC0000038014008B50B48006820F0100009498F
:103ED00008600520FEF75AF9012269466846FFF797
:103EE00017FC0448006840F01000024908609DF883
:103EF000000008BD0C0801400FB438B505A80090BB
:103F0000FF210A48FCF7E1FAFF210848009B049AC8
:103F1000FCF7D2F90548FCF721FA84B221460348A0
:103F2000FFF7F4FC38BC5DF814FB00003C000020F7
:103F300010B50948006820F0100007490860042007
:103F4000FEF724F90448006840F0100002490860B8
:103F500000F018F810BD00000C08014010B508482A
:103F6000006820F01000064908600620FEF70EF9F0
:103F70000348006840F010000149086010BD0000CF
:103F80000C08014010B5012402E0FFF79BFF044636
:103F900004F001000028F8D110BD000010B5114850
:103FA000006820F010000F4908605020FEF7EEF87E
:103FB0000C48006840F010000A4908600846006894
:103FC00020F0100008600120FEF7E0F80020FEF766
:103FD000DDF80448006840F0100002490860FFF76F
:103FE000D1FF10BD0C08014010B500290AD0087897
:103FF000002807D005487844FCF7B0FA002801D023
:10400000002010BD0248784410BD00006602000088
:104010005E02000010B500290AD00878002807D0F9
:1040200005487844FCF79AFA002801D0002010BD1A
:104030000248784410BD00004A030000420300001B
:10404000FCF79BBF000C0140200000000000F000C6
:1040500000002000000801401000000000000F00D8
:104060000000030000080140200000000000F000F4
:104070000000B00000080140400000000000000FF8
:10408000000000040008014080000000000000F073
:10409000000000B00014014004000000000F000008
:1040A000000B00000008014000020000F0000000CA
:1040B000B00000000008014000040000000F0000F4
:1040C0000004000000100140000100000F0000008B
:1040D0000B0000000010014000020000F000000092
:1040E000B00000000010014000040000000F0000BC
:1040F000000B0000001001400008000000F000006C
:1041000000B00000001001400010000000000F008F
:1041100000000B007072696E74656E76000000001E
:10412000353A0008736574656E7600000000000083
:10413000B53A000873617665656E76000000000090
:10414000993A00086261636B75700000000000001E
:10415000ED390008626F6F746D0000000000000010
:10416000153C000800000000000000003031323330
:10417000343536373839414243444546403058009B
:1041800030313233343536373839616263646566CD
:104190004030780004000008000000000000000229
:1041A000000100001000000002400000000000A01C
:1041B0000000000005400000000000C800000000F2
:1041C0000C4000000000409C00000000194000006E
:1041D0000020BCBE0000000034400000BFC91B8EA0
:1041E00000000004B5400000504BCFD06607E2CF7E
:1041F000010000006C4100003E8251AADFEEA734AE
:1042000001000000D9420000DCB5A0E23A301F975F
:10421000FFFFFFFFB4450000FD25A0C8E9A3C14F83
:10422000FFFFFFFFFF3F00000000008000000000D4
:10423000FF3F0000000000800000000088430008ED
:10424000000000203C0000006C010008C44300088E
:104250003C000020346600008801000810010000C6
:1042600043000000F8FFFFFF004040404040404056
:104270004040414141414140404040404040404039
:1042800040404040404040404005020202020202DD
:10429000020202020202020202202020202020202C
:1042A0002020200202020202020290909090909040
:1042B00010101010101010101010101010101010FE
:1042C0001010101002020202020288888888888872
:1042D000080808080808080808080808080808085E
:1042E0000808080802020202400000000000000066
:1042F00000000000000000000000000000000000BE
:1043000000000000000000000000000000000000AD
:10431000000000000000000000000000000000009D
:10432000000000000000000000000000000000008D
:10433000000000000000000000000000000000007D
:10434000000000000000000000000000000000006D
:10435000000000000000000000000000000000005D
:104360000000000000000000000000001C00000031
:1043700043000000F8FFFFFF0C0000000E000000EB
:104380000F0000002E00000000A24A040000000000
:10439000000000000000000002000000000000001B
:1043A0000000000000000000000000002A000000E3
:1043B00000000000000000000000000000000000FD
:0443C00000000000F9
:0400000508000131BD
:00000001FF
